:1000000024C048C047C046C045C079C343C042C0B1
:1000100041C040C03FC03EC03DC03CC03BC0FC6092
:10002000DAF266B6BEE0FEF6EE3E9C7A9E8EBC6EBE
:10003000781CAAECCE0A1E7C760056000000003721
:100040000002020202020200530411241FBECFE587
:10005000D2E0DEBFCDBF10E0A0E6B0E0EAEFF8E00E
:1000600002C005900D92A037B107D9F720E0A0E7B4
:10007000B0E001C01D92AF38B207E1F710E0C5E271
:10008000D0E003C02197FE0128D4C432D107D1F7B4
:1000900080D331C4B5CF90E49EB98FB9689A68987F
:1000A000689A6898689A6898689A6898689A689848
:1000B000689A6898689A6898689A6898689A689838
:1000C000689A6898689A6898689A6898689A689828
:1000D000689A6898689A6898689A68988FB108953D
:1000E0009DB1916020E42EB98FB980E19DB9262F92
:1000F0002A95F1F78150D1F78FB10895082E000CA1
:100100008795000C8795000C8795000C8795000C4F
:100110008795000C8795000C8795000C87950895AE
:100120001F93CF93DF93C0917500D091760010910B
:10013000770090916000992331F0612FFE01DF91EB
:10014000CF911F910994DADF612FFE010995DF91AC
:10015000CF911F91D3CF3FB7F894809171009091C8
:100160007200A0917300B091740022B708B601FE2E
:1001700005C02F3F19F00196A11DB11D3FBFBA2F39
:10018000A92F982F8827BC01CD01620F711D811DF9
:10019000911D43E0660F771F881F991F4A95D1F77D
:1001A0000895CF92DF92EF92FF92CF93DF936B018E
:1001B0007C01D1DFEB01CFDF6C1B7D0B683E734010
:1001C000A0F0C114D104E104F10439F4DF91CF911E
:1001D000FF90EF90DF90CF90089581E0C81AD1088A
:1001E000E108F108C851DC4FE6CFC114D104E104A5
:1001F000F10409F7EBCFCF93DF93ACE7B0E01796AC
:100200001C92179781E018968C93189792E0199694
:100210009C93199728E330E01B963C932E931A97F2
:1002200050968C9350971D963C932E931C97519605
:100230009C9351971F963C932E931E9794E0529651
:100240009C935297B89AE2E4F0E0E491F0E0EE0F6C
:10025000FF1FE55CFF4FC591D49198819260988310
:100260001996EC911997F0E0EF5BFF4FE491F0E005
:10027000EE0FFF1FE55CFF4FC591D4919881529618
:100280002C915297922B988316968C93DF91CF9155
:100290000895811105C08FB7F894C2988FBF089553
:1002A0008FB7F894C29AFACFCF93DF9300D000D0E3
:1002B00000D0CDB7DEB749835A837C838D839E837C
:1002C0006DB98981809360008C81809377008D81E6
:1002D0009E8190937600809375008A81882351F0E7
:1002E00081E026960FB6F894DEBF0FBECDBFDF913A
:1002F000CF91CFCF80E0F5CF0F931F93CF93DF93B4
:1003000000D000D000D0CDB7DEB720E130E002C091
:10031000220F331F6A95E2F7E82FF0E0E25EFF4F0D
:10032000E4910E2F10E0102F002741111160F90108
:10033000FF2780918000882309F46CC010950E2B54
:100340001F2B80918100882309F468C0809182006E
:10035000882309F463C0E0918600F09187009081C2
:1003600080918C00809589238083809181008823EF
:1003700009F459C080918200882309F454C0F8948C
:1003800030E020E0E0918800F091890080918D00BC
:10039000A801022E02C0569547950A94E2F7908173
:1003A00040FF3EC0892B8083E0918A00F0918B0052
:1003B000808190918E00892B80830000E0918A00DB
:1003C000F0918B00908180918E00809589238083AD
:1003D0002F5F3F4F20313105A9F67894809181003D
:1003E0008823A9F180918200882389F1E091860019
:1003F000F0918700808190918C00892B80832696D4
:100400000FB6F894DEBF0FBECDBFDF91CF911F9125
:100410000F910895E095F0950E2B93CFC098A5CF3E
:1004200080958923C0CF19821A828AE18B831C822E
:100430008BE490E09E838D8340E050E06AE170E0C1
:100440009E8132DF802F6CDE812F6ADEC7CFC09A9B
:10045000D6CFCF92DF92EF92FF92CF93C82F8FB774
:10046000F894C0907800D0907900E0907A00F090F5
:100470007B008FBF80917C0090917D00A0917E00D9
:10048000B0917F00C80ED91EEA1EFB1E2FB7F8944C
:100490008091780090917900A0917A00B0917B00D2
:1004A0002FBFC816D906EA06FB0628F041E060E037
:1004B0008C2F22DFEBCFCF91FF90EF90DF90CF908A
:1004C00008954F925F926F927F928F929F92AF9218
:1004D000BF92CF92DF92EF92FF920F931F93CF9331
:1004E000DF93CDB7DEB75C01EDB6FEB680E091E0FC
:1004F000812C912C41E050E0F501E80FF11D2081A5
:10050000222381F02E3261F4282F291BBA0102C068
:10051000660F771F2A95E2F7862A9F5F8F5FECCFE1
:100520009394FCCF74E0791550F580E197E2A0E058
:10053000B0E080937C0090937D00A0937E00B09308
:100540007F0081E690E0BDDF0FB6F894FEBE0FBEDF
:10055000EDBE0FB6F894FEBE0FBEEDBEDF91CF919B
:100560001F910F91FF90EF90DF90CF90BF90AF90D1
:100570009F908F907F906F905F904F9008958DB770
:100580009EB7891991090FB6F8949EBF0FBE8DBF13
:10059000EDB7FEB731966F0100E0712CF501E70D64
:1005A000F11D9081992309F468C09E3209F463C05B
:1005B00066246394600E10E0292F092E000C330B83
:1005C000A9014053510990534A30510508F44EC0D7
:1005D000C90189D191E0893409F448C092E08A3593
:1005E00009F444C095E0833509F440C09AE08134B1
:1005F000E9F198E08234D1F19CE08334B9F19DE0D7
:100600008434A1F19EE0853489F19FE0863471F154
:1006100090E1873459F191E1883441F192E18A34D3
:1006200029F193E18C3411F194E18D34F9F090E0EB
:100630008F34E1F095E18E34C9F096E18035B1F068
:1006400099E0813599F097E1823581F098E1843520
:1006500069F09BEA980F923040F09CE1873531F0C9
:100660009BE1893519F49AE101C099E1F601E00FA7
:10067000F11F9083062D739491CF8FB7F89440901B
:1006800078005090790060907A0070907B008FBF66
:1006900080917C0090917D00A0917E00B0917F00C0
:1006A000480E591E6A1E7B1EAA24AA94A90C912CDE
:1006B0002FB7F8948091780090917900A0917A00FA
:1006C000B0917B002FBF481659066A067B0608F4D6
:1006D0003BCFBA2C8601FFEFBF1651F3C8018C192E
:1006E0009D09A40102C0559547958A95E2F741708E
:1006F0006B2DF80181918F01FFDDBA94ECCF1F9231
:100700000F920FB60F9211242F933F938F939F93C5
:10071000AF93BF938091780090917900A0917A0077
:10072000B0917B003091700026E0230F2D3768F1E7
:1007300029E8230F0396A11DB11D2093700080931B
:10074000780090937900A0937A00B0937B00809119
:10075000710090917200A0917300B09174000196A5
:10076000A11DB11D8093710090937200A09373003E
:10077000B0937400BF91AF919F918F913F912F9152
:100780000F900FBE0F901F9018950296A11DB11DDE
:10079000D4CFCF93DF9300D000D000D0CDB7DEB759
:1007A00080E886BD81E086BD93E09ABD93BF7894D2
:1007B00099B7926099BF90E49CBD9FEF9DBD97EC67
:1007C00090BF96E896B948EC50E060E070E0409346
:1007D0007C0050937D0060937E0070937F009DB1FC
:1007E0009F719DB99DB19A619DB9BA9AB99AB8980D
:1007F0009AE19B8389831A828C8380E790E09E83B1
:100800008D8341E050E06AE171E09E814DDD109200
:10081000600087B3876087BB80918200811101C02F
:10082000EADCE9DCFF24F3941092810003E010E09D
:1008300086E690E046DE68EE73E080E090E0B1DCB2
:1008400001501109A9F7F092810003E010E08BE656
:1008500090E037DE68EE73E080E090E0A2DC0150CB
:100860001109A9F710E000E010928100C801F1DD44
:100870006AEF70E080E090E094DC0F5F1F4F05307E
:10088000110591F710E000E0F0928100C801E1DD70
:100890006AEF70E080E090E084DC0F5F1F4F05306E
:1008A000110591F7C1CFECE7F0E0148280E197E207
:1008B000A0E0B0E080839183A283B3831582168287
:1008C000178210861186138612861586148617865F
:1008D0001686108A118A128A0895EE0FFF1F05905E
:1008E000F491E02D09949111089581568A5108F4EC
:0A08F000805285580895F894FFCF58
:1008FA00014F56462000485720200042422020003F
:00000001FF
