:100000000C946C000C9494000C9494000C94940048
:100010000C9494000C9494000C9494000C94940010
:100020000C9494000C9494000C9494000C94940000
:100030000C9494000C9494000C9494000C949400F0
:100040000C9484030C9494000C9494000C949400ED
:100050000C9494000C9494000C9494000C949400D0
:100060000C9494000C94940000000008000201001D
:10007000000304070000000000000000FC60DAF24A
:1000800066B6BEE0FEF6EE3E9C7A9E8EBC6E781C96
:10009000AAECCE0A1E7C7600560000000024002741
:1000A000002A000102040810204080010204081008
:1000B0002001020408102000000000250028002B69
:1000C0000004040404040404040202020202020301
:1000D000030303030300ED0411241FBECFEFD8E098
:1000E000DEBFCDBF11E0A0E0B1E0EEE2FAE002C079
:1000F00005900D92A031B107D9F721E0A0E1B1E060
:1001000001C01D92AD32B207E1F710E0CCE6D0E0BD
:1001100004C02197FE010E940705CB36D107C9F71D
:100120000E94CE030C9415050C940000CF93DF932E
:10013000AAE1B1E08AE017968C9317978BE01896A6
:100140008C9318978DE019968C9319978BEC90E00F
:10015000FC012491E22FF0E0EE0FFF1FE954FF4F66
:10016000259134911B963C932E931A97EDEAF0E07B
:10017000249150962C935097ECECF0E0E491F0E051
:10018000EE0FFF1FE954FF4F459154911D965C936C
:100190004E931C97EEEAF0E0E4915196EC93519760
:1001A000EEECF0E0E491F0E0EE0FFF1FE954FF4FBA
:1001B000459154911F965C934E931E97E0EBF0E0AF
:1001C000E4915296EC935297FC018491E82FF0E071
:1001D000EE0FFF1FE756FF4FC591D491E8812E2BFC
:1001E00028831896EC911897F0E0EF53FF4FE491B5
:1001F000F0E0EE0FFF1FE756FF4FC591D4918881C5
:1002000051969C915197892B88831996EC91199757
:10021000F0E0EF53FF4FE491F0E0EE0FFF1FE756E1
:10022000FF4FC591D491888152969C915297892B0A
:10023000888381E016968C93DF91CF91089590E0AA
:10024000FC01ED55FF4F24918F539F4FFC0184918A
:10025000882399F090E0880F991FFC01E756FF4F23
:10026000A591B491FC01E954FF4F859194918FB70A
:10027000F894EC91E22BEC938FBF089520E130E0ED
:1002800002C0220F331F6A95E2F7E82FF0E0E4582E
:10029000FF4FE491F0E0FE2FEE274111F160C9011C
:1002A000992720911E01222309F462C0F095E82BC2
:1002B000F92B80911F01882309F45EC080912001F1
:1002C000882309F459C0A0912401B09125019C9183
:1002D00080912A01809589238C9380911F01882326
:1002E00009F44FC080912001882309F44AC0F89492
:1002F00030E020E0A0912601B091270180912B01F0
:10030000AF01022E02C0569547950A94E2F79C91E0
:1003100040FF34C0892B8C93A0912801B091290112
:100320008C9190912C01892B8C930000A091280135
:10033000B09129019C9180912C01809589238C9307
:100340002F5F3F4F20313105A9F6789480911F012E
:10035000882339F180912001882319F1E09124014B
:10036000F0912501808190912A01892B8083089545
:1003700080959095E82B9DCF2A98AFCF80958923C3
:10038000CACF81E78CBD1DBCEEBD00000DB407FED9
:10039000FDCF8EB5FEBD00000DB407FEFDCF8EB5BE
:1003A000D5CF2A9A08953FB7F89480911201909181
:1003B0001301A0911401B091150126B5A89B05C0A9
:1003C0002F3F19F00196A11DB11D3FBFBA2FA92FD4
:1003D000982F8827BC01CD01620F711D811D911DD1
:1003E00042E0660F771F881F991F4A95D1F708953D
:1003F0008F929F92AF92BF92CF92DF92EF92FF9235
:100400004B015C010E94D3016B017C010E94D3016E
:100410006C197D098E099F09683E7340810591051D
:10042000A8F321E0821A9108A108B10888EEC80E4D
:1004300083E0D81EE11CF11C81149104A104B104D5
:1004400029F7FF90EF90DF90CF90BF90AF909F90F3
:100450008F900895CF92DF92EF92FF92CF93C82FA3
:100460008FB7F894C0901601D0901701E090180152
:10047000F09019018FBF80911A0190911B01A091FA
:100480001C01B0911D01C80ED91EEA1EFB1E2FB71C
:10049000F8948091160190911701A0911801B091E4
:1004A00019012FBFC816D906EA06FB0630F041E055
:1004B00060E08C2F0E943E01EACFCF91FF90EF9039
:1004C000DF90CF9008954F925F926F927F928F92BC
:1004D0009F92AF92BF92CF92DF92EF92FF920F93D3
:1004E0001F93CF93DF93CDB7DEB75C01EDB6FEB6B9
:1004F00080E091E0812C912C41E050E0F501E80F83
:10050000F11D2081222381F02E3261F4282F291B36
:10051000BA0102C0660F771F2A95E2F7862A9F5F0D
:100520008F5FECCF9394FCCF74E0791558F580E1A0
:1005300097E2A0E0B0E080931A0190931B01A09392
:100540001C01B0931D0180E091E00E9463020FB690
:10055000F894FEBE0FBEEDBE0FB6F894FEBE0FBE01
:10056000EDBEDF91CF911F910F91FF90EF90DF9043
:10057000CF90BF90AF909F908F907F906F905F9043
:100580004F9008958DB79EB7891991090FB6F894C9
:100590009EBF0FBE8DBFEDB7FEB731966F0100E075
:1005A000712CF501E70DF11D9081992309F469C0C3
:1005B0009E3209F464C066246394600E10E0292F13
:1005C000092E000C330BA9014053510990534A30B6
:1005D000510508F44FC0C9010E940D0591E089340E
:1005E00009F448C092E08A3509F444C095E08335A7
:1005F00009F440C09AE08134E9F198E08234D1F105
:100600009CE08334B9F19DE08434A1F19EE085340F
:1006100089F19FE0863471F190E1873459F191E1DD
:10062000883441F192E18A3429F193E18C3411F15B
:1006300094E18D34F9F090E08F34E1F095E18E345F
:10064000C9F096E18035B1F099E0813599F097E1F4
:10065000823581F098E1843569F09BEA980F9230F9
:1006600040F09CE1873531F09BE1893519F49AE13E
:1006700001C099E1F601E00FF11F9083062D7394FC
:1006800090CF8FB7F894409016015090170160906A
:100690001801709019018FBF80911A0190911B0170
:1006A000A0911C01B0911D01480E591E6A1E7B1EAF
:1006B000AA24AA94A90C912C2FB7F8948091160122
:1006C00090911701A0911801B09119012FBF481600
:1006D00059066A067B0608F43ACFBA2C8601FFEF6A
:1006E000BF1651F3C8018C199D09A40102C055958C
:1006F00047958A95E2F741706B2DF80181918F0142
:100700000E943E01BA94EBCF1F920F920FB60F9248
:1007100011242F933F938F939F93AF93BF93809117
:10072000160190911701A0911801B0911901309113
:10073000110123E0230F2D3758F50196A11DB11D9E
:10074000209311018093160190931701A093180133
:10075000B09319018091120190911301A09114019D
:10076000B09115010196A11DB11D809312019093C6
:100770001301A0931401B0931501BF91AF919F9104
:100780008F913F912F910F900FBE0F901F90189552
:1007900026E8230F0296A11DB11DD2CF789484B50F
:1007A000826084BD84B5816084BD85B5826085BD6D
:1007B00085B5816085BD80916E00816080936E00FB
:1007C00010928100809181008260809381008091ED
:1007D000810081608093810080918000816080939E
:1007E00080008091B10084608093B1008091B0005E
:1007F00081608093B00080917A00846080937A0059
:1008000080917A00826080937A0080917A00816082
:1008100080937A0080917A00806880937A001092A9
:10082000C10088EC90E0A0E0B0E080931A019093C2
:100830001B01A0931C01B0931D01CFB7F8948091C8
:100840001001811146C08BEC90E0FC0124914DEA2F
:1008500050E0FA013491E22FF0E0EE0FFF1FE7566F
:10086000FF4FA591B4912C91322321F5E2E7F0E0FE
:100870002491FA014491FC0194919923D9F0222307
:1008800059F0233009F492C008F085C0213009F4F2
:1008900093C0223009F494C0E92FF0E0EE0FFF1F5F
:1008A000E954FF4FA591B4918FB7F8949C91492BCF
:1008B0004C938FBF8AE00E941F018CB580618CBD74
:1008C0008CB580648CBD8DE00E941F018BE00E947E
:1008D0001F01809110018F5F80931001CFBF8CB5F5
:1008E00080628CBD84B18C6284B9809120018111B9
:1008F00002C00E9496000E94960011E080E0E82E5F
:1009000080E0F82E10921F01C3E0D0E085E091E076
:100910000E94630268EE73E080E090E00E94F801BC
:100920002197A1F710931F01C3E0D0E08AE091E086
:100930000E94630268EE73E080E090E00E94F8019C
:100940002197A1F7D0E0C0E010921F01CE010E94D4
:100950002A026AEF70E080E090E00E94F8012196A0
:10096000C530D10589F7D0E0C0E010931F01CE015A
:100970000E942A026AEF70E080E090E00E94F80195
:100980002196C530D10589F7E114F10409F4BACFF5
:100990000E940000B7CF2730B1F02830D1F02430CA
:1009A00009F07ACF809180008F7D03C08091800014
:1009B0008F778093800070CF84B58F7784BD6CCFA4
:1009C00084B58F7DFBCF8091B0008F778093B0008E
:1009D00063CF8091B0008F7DF9CFEAE1F1E014821E
:1009E00080E197E2A0E0B0E080839183A283B383AB
:1009F0001582168217821086118613861286158636
:100A0000148617861686108A118A128A0895EE0FA8
:100A1000FF1F0590F491E02D0994911108958156DE
:0E0A20008A5108F4805285580895F894FFCF4B
:100A2E004F5646200048572020004242202000000A
:00000001FF
