:100000000C94B2000C94DA000C94DA000C94DA0030
:100010000C94DA000C94DA000C94DA000C94DA00F8
:100020000C94DA000C94DA000C94DA000C94DA00E8
:100030000C94DA000C94DA000C94DA000C94DA00D8
:100040000C9438030C94DA000C94DA000C94DA0067
:100050000C94DA000C94DA000C94DA000C94DA00B8
:100060000C94DA000C94DA0007634236B79BD8A7E9
:100070001A39685618AEBAAB558C1D3CB7CC5763CD
:10008000BD6DEDFD753EF6177231BF000000803F7B
:1000900008000000BE922449123EABAAAA2ABECD97
:1000A000CCCC4C3E00000080BEABAAAAAA3E000009
:1000B0000000BF000000803F000000000008417801
:1000C000D3BB4387D1133D190E3CC3BD4282AD2B38
:1000D0003E68EC8276BED98FE1A93E4C80EFFFBE30
:1000E00001C4FF7F3F000000000000000008000284
:1000F00001000003040700000000000000000100F0
:100100000A006400E8031027FC60DAF266B6BEE07D
:10011000FEF6EE3E9C7A9E8EBC6E781CAAECCE0A51
:100120001E7C76005600000000250028002B0000F1
:10013000000000240027002A00040404040404042E
:100140000402020202020203030303030301020486
:100150000810204080010204081020010204081049
:1001600020008B0511241FBECFEFD8E0DEBFCDBF2E
:1001700011E0A0E0B1E0E4E3F3E102C005900D92EC
:10018000A433B107D9F721E0A4E3B1E001C01D9287
:10019000A135B207E1F710E0C2EBD0E004C021972F
:1001A000FE010E94CE05C13BD107C9F70E94820320
:1001B0000C9498090C94000090E0FC01E35BFE4F66
:1001C0002491875C9E4FFC018491882399F090E0F4
:1001D000880F991FFC01E15DFE4FA591B491FC01D0
:1001E000EB5DFE4F859194918FB7F894EC91E22BE3
:1001F000EC938FBF089520E130E002C0220F331F3F
:100200006A95E2F7E82FF0E0E85FFE4FE491F0E056
:10021000FE2FEE274111F160C9019927209142017B
:10022000222309F462C0F095E82BF92B8091430159
:10023000882309F45EC080914401882309F459C0E1
:10024000A0914801B09149019C9180914E01809507
:1002500089238C9380914301882309F44FC08091B6
:100260004401882309F44AC0F89430E020E0A091CA
:100270004A01B0914B0180914F01AF01022E02C0A3
:10028000569547950A94E2F79C9140FF34C0892B1C
:100290008C93A0914C01B0914D018C9190915001A3
:1002A000892B8C930000A0914C01B0914D019C9141
:1002B00080915001809589238C932F5F3F4F20318F
:1002C0003105A9F6789480914301882339F1809112
:1002D0004401882319F1E0914801F091490180819E
:1002E00090914E01892B8083089580959095E82BFD
:1002F0009DCF2A98AFCF80958923CACF81E78CBD47
:100300001DBCEEBD00000DB407FEFDCF8EB5FEBDD9
:1003100000000DB407FEFDCF8EB5D5CF2A9A089503
:100320008F929F92AF92BF92DF92EF92FF920F93C4
:100330001F93CF93DF9300D000D0CDB7DEB79C01E1
:10034000D62EEAE0F0E0BF010E94A6058983CB012A
:10035000BF010E94A6058A83C90164E670E00E947D
:10036000A6056B831C8283E001E0080FE1E0F0E06A
:10037000EC0FFD1FE80FF11D9081911108C0D816F8
:1003800031F09FEF980F9D1508F03FC0082F8FB7F1
:10039000F89480903A0190903B01A0903C01B0907D
:1003A0003D018FBF80913E0190913F01A09140019E
:1003B000B0914101880E991EAA1EBB1E60E010E09C
:1003C0002FB7F89480913A0190913B01A0913C01A4
:1003D000B0913D012FBF88169906AA06BB06B8F05A
:1003E000E62EF12C41E0D61240E0E1E0F0E0EC0F27
:1003F000FD1FEE0DFF1D80810E94FB00C7010196CD
:10040000B8010E94BA05682FDBCF892FADCF0F90BE
:100410000F900F900F90DF91CF911F910F91FF9050
:10042000EF90DF90BF90AF909F908F9008954F9284
:100430005F926F927F928F929F92AF92BF92CF9274
:10044000DF92EF92FF920F931F93CF93DF93CDB77D
:10045000DEB75C01EDB6FEB680E091E0812C912C18
:1004600041E050E0F501E80FF11D2081222381F0E9
:100470002E3261F4282F291BBA0102C0660F771FA4
:100480002A95E2F7862A9F5F8F5FECCF9394FCCF8B
:1004900074E0791558F580E197E2A0E0B0E0809330
:1004A0003E0190933F01A0934001B093410180E051
:1004B00091E00E9417020FB6F894FEBE0FBEEDBE8B
:1004C0000FB6F894FEBE0FBEEDBEDF91CF911F9127
:1004D0000F91FF90EF90DF90CF90BF90AF909F90E3
:1004E0008F907F906F905F904F9008958DB79EB7DB
:1004F000891991090FB6F8949EBF0FBE8DBFEDB755
:10050000FEB731966F0100E0712CF501E70DF11D8A
:100510009081992309F469C09E3209F464C066246D
:100520006394600E10E0292F092E000C330BA901F3
:100530004053510990534A30510508F44FC0C90146
:100540000E94900991E0893409F448C092E08A350C
:1005500009F444C095E0833509F440C09AE0813441
:10056000E9F198E08234D1F19CE08334B9F19DE067
:100570008434A1F19EE0853489F19FE0863471F1E5
:1005800090E1873459F191E1883441F192E18A3464
:1005900029F193E18C3411F194E18D34F9F090E07C
:1005A0008F34E1F095E18E34C9F096E18035B1F0F9
:1005B00099E0813599F097E1823581F098E18435B1
:1005C00069F09BEA980F923040F09CE1873531F05A
:1005D0009BE1893519F49AE101C099E1F601E00F38
:1005E000F11F9083062D739490CF8FB7F8944090AD
:1005F0003A0150903B0160903C0170903D018FBFEB
:1006000080913E0190913F01A0914001B091410144
:10061000480E591E6A1E7B1EAA24AA94A90C912C6E
:100620002FB7F89480913A0190913B01A0913C0141
:10063000B0913D012FBF481659066A067B0608F4A3
:100640003ACFBA2C8601FFEFBF1651F3C8018C19BF
:100650009D09A40102C0559547958A95E2F741701E
:100660006B2DF80181918F010E94FB00BA94EBCFB2
:100670001F920F920FB60F9211242F933F938F93D7
:100680009F93AF93BF9380913A0190913B01A091CA
:100690003C01B0913D013091390123E0230F2D370A
:1006A00058F50196A11DB11D2093390180933A019F
:1006B00090933B01A0933C01B0933D0180913501A3
:1006C00090913601A0913701B09138010196A11D9A
:1006D000B11D8093350190933601A0933701B093FB
:1006E0003801BF91AF919F918F913F912F910F90C2
:1006F0000FBE0F901F90189526E8230F0296A11D9C
:10070000B11DD2CF789484B5826084BD84B58160F8
:1007100084BD85B5826085BD85B5816085BD8091CC
:100720006E00816080936E00109281008091810044
:10073000826080938100809181008160809381003C
:10074000809180008160809380008091B1008460FE
:100750008093B1008091B00081608093B00080915F
:100760007A00846080937A0080917A00826080931E
:100770007A0080917A00816080937A0080917A007B
:10078000806880937A001092C10088EE93E0A0E028
:10079000B0E080933E0190933F01A0934001B0935D
:1007A0004101CFB7F89480913401811146C083E4B0
:1007B00091E0FC01249147E551E0FA013491E22FE8
:1007C000F0E0EE0FFF1FE15DFE4FA591B4912C917B
:1007D000322321F5E4EFF0E02491FA014491FC0189
:1007E00094919923D9F0222359F0233009F41EC1A2
:1007F00008F011C1213009F41FC1223009F420C1D1
:10080000E92FF0E0EE0FFF1FEB5DFE4FA591B491D5
:100810008FB7F8949C91492B4C938FBF8AE00E942C
:10082000DC008CB580618CBD8CB580648CBD8DE0A6
:100830000E94DC008BE00E94DC00809134018F5F1D
:1008400080933401CFBF8CB580628CBD84B18C6243
:1008500084B980914401811178C08AE08093450178
:100860008BE0809346018DE08093470183E491E023
:10087000FC012491E22FF0E0EE0FFF1FEB5DFE4F35
:10088000259134913093490120934801E7E5F1E047
:10089000249120934E01E4E4F1E0E491F0E0EE0FC6
:1008A000FF1FEB5DFE4F4591549150934B014093D8
:1008B0004A01E8E5F1E0E491E0934F01E6E4F1E07C
:1008C000E491F0E0EE0FFF1FEB5DFE4F4591549178
:1008D00050934D0140934C01EAE5F1E0E491E0933F
:1008E0005001FC018491E82FF0E0EE0FFF1FE15D65
:1008F000FE4FA591B491EC912E2B2C93E0914601E3
:10090000F0E0E75CFE4FE491F0E0EE0FFF1FE15DE9
:10091000FE4FA591B4918C9190914F01892B8C93AE
:10092000E0914701F0E0E75CFE4FE491F0E0EE0F6C
:10093000FF1FE15DFE4FA591B4918C919091500104
:10094000892B8C9381E08093440181E08093430163
:1009500080E0282E81E0382E00E010E090E1892E22
:1009600097E2992EA12CB12C28EE422E23E0522E94
:10097000612C712C85E091E00E9417028AE091E0E1
:100980000E9417028FE091E00E941702C5E0D0E0BC
:1009900060E0CE010E9490012197D0F788E191E0BC
:1009A0000E941702C3E0D0E0BE010D2E000C880BA0
:1009B000990B0E9477069B01AC0160E070E080E239
:1009C00091E40E9499070E94460660933E0170934D
:1009D0003F018093400190934101C12CD12C7601BD
:1009E000E6E0F1E06591749190E080E00E94750688
:1009F0009B01AC01C701B6010E94270787FD72C0A9
:100A000080923E0190923F01A0924001B09241013C
:100A100080E091E035C02730B1F02830D1F02430AB
:100A200009F0EECE809180008F7D03C08091800020
:100A30008F7780938000E4CE84B58F7784BDE0CE3D
:100A400084B58F7DFBCF8091B0008F778093B0000D
:100A5000D7CE8091B0008F7DF9CF20E030E0A901A2
:100A6000C701B6010E94410687FFBACF80923E01BE
:100A700090923F01A0924001B09241018FE191E03C
:100A80000E9417022DEC3CEC4CEC5DE3C701B60173
:100A90000E94D5056B017C0120E030E040E151E48B
:100AA0000E94410687FDD9CF219708F07DCF409263
:100AB0003E0150923F01609240017092410184E2F8
:100AC00091E00E94170289E291E00E9417028EE2F3
:100AD00091E00E9417020115110509F44BCF0E9405
:100AE000000048CFF1016591749190E080E00E9490
:100AF0007506A70196010E942C0720E030E040E037
:100B00005FE30E94D5050E944606CB01992761E06C
:100B10000E949001B7CFEEE3F1E0148280E197E20A
:100B2000A0E0B0E080839183A283B3831682178212
:100B300010861186138612861586148617861686E9
:100B4000108A118A128A81E085830895AA1BBB1B33
:100B500051E107C0AA1FBB1FA617B70710F0A61BBD
:100B6000B70B881F991F5A95A9F780959095BC01DE
:100B7000CD01089597FB072E16F4009407D077FD5A
:100B800009D00E94A60507FC05D03EF490958195FA
:100B90009F4F0895709561957F4F0895EE0FFF1F49
:100BA0000590F491E02D09945058BB27AA270E9484
:100BB000EC050C94ED060E94DF0638F00E94E60674
:100BC00020F039F49F3F19F426F40C94DC060EF45F
:100BD000E095E7FB0C94D606E92F0E94FE0658F339
:100BE000BA17620773078407950720F079F4A6F512
:100BF0000C9420070EF4E0950B2EBA2FA02D0B01BC
:100C0000B90190010C01CA01A0011124FF27591B51
:100C100099F0593F50F4503E68F11A16F040A22F57
:100C2000232F342F4427585FF3CF469537952795C8
:100C3000A795F0405395C9F77EF41F16BA0B620BC7
:100C4000730B840BBAF09150A1F0FF0FBB1F661F0E
:100C5000771F881FC2F70EC0BA0F621F731F841F51
:100C600048F4879577956795B795F7959E3F08F077
:100C7000B0CF9395880F08F09927EE0F9795879539
:100C800008950E94B20608F481E008950E940607C4
:100C900088F09F5798F0B92F9927B751B0F0E1F03D
:100CA000660F771F881F991F1AF0BA95C9F714C0ED
:100CB000B13091F00E942007B1E008950C94200714
:100CC000672F782F8827B85F39F0B93FCCF3869526
:100CD00077956795B395D9F73EF490958095709583
:100CE00061957F4F8F4F9F4F0895E89409C097FB00
:100CF0003EF490958095709561957F4F8F4F9F4FF3
:100D00009923A9F0F92F96E9BB279395F695879536
:100D100077956795B795F111F8CFFAF4BB0F11F4F9
:100D200060FF1BC06F5F7F4F8F4F9F4F16C08823A0
:100D300011F096E911C0772321F09EE8872F762FD6
:100D400005C0662371F096E8862F70E060E02AF017
:100D50009A95660F771F881FDAF7880F9695879503
:100D600097F90895990F0008550FAA0BE0E8FEEFD8
:100D700016161706E807F907C0F012161306E4075F
:100D8000F50798F0621B730B840B950B39F40A2658
:100D900061F0232B242B252B21F408950A2609F436
:100DA000A140A6958FEF811D811D089597F99F673A
:100DB00080E870E060E008959FEF80EC08950024E3
:100DC0000A941616170618060906089500240A94B0
:100DD00012161306140605060895092E0394000C36
:100DE00011F4882352F0BB0F40F4BF2B11F460FFC5
:100DF00004C06F5F7F4F8F4F9F4F089557FD9058EE
:100E0000440F551F59F05F3F71F04795880F97FBCE
:100E1000991F61F09F3F79F0879508951216130688
:100E20001406551FF2CF4695F1DF08C016161706B7
:100E30001806991FF1CF86957105610508940895EC
:100E4000E894BB2766277727CB0197F908950E947E
:100E5000B20608F48FEF08950E943F070C94ED0648
:100E60000E94DF0638F00E94E60620F0952311F07C
:100E70000C94D6060C94DC0611240C9421070E94D5
:100E8000FE0670F3959FC1F3950F50E0551F629FCA
:100E9000F001729FBB27F00DB11D639FAA27F00DD3
:100EA000B11DAA1F649F6627B00DA11D661F829FFA
:100EB0002227B00DA11D621F739FB00DA11D621FDF
:100EC000839FA00D611D221F749F3327A00D611DFC
:100ED000231F849F600D211D822F762F6A2F1124DE
:100EE0009F5750409AF0F1F088234AF0EE0FFF1F11
:100EF000BB1F661F771F881F91505040A9F79E3F68
:100F0000510580F00C94D6060C9421075F3FE4F362
:100F1000983ED4F3869577956795B795F795E795BD
:100F20009F5FC1F7FE2B880F911D9695879597F9C6
:100F30000895FA01EE0FFF1F309621053105A1F14A
:100F40006115710561F48038BFE39B0749F168942E
:100F50009038810561F08038BFEF9B0741F09923FD
:100F60004AF5FF3FE1053105210519F1E8940894A0
:100F7000E795D901AA2329F4AB2FBE2FF85FD0F350
:100F800010C0FF5F70F4A695E0F7F73950F019F044
:100F9000FF3A38F49F779F930DD00F9007FC90583D
:100FA000089546F00C94DC0660E070E080E89FE372
:100FB00008954FE79F775F934F933F932F930E943E
:100FC00094082F913F914F915F910E942C070C94B0
:100FD000F10729F416F00C94D6060C9420070C9413
:100FE000DC060E940607A8F39638A0F707F80F92D0
:100FF000E8942BE33AEA48EB5FE70E9442070F923E
:101000000F920F924DB75EB70F920E94DC08E8E690
:10101000F0E00E9423084F915F91EF91FF91E595D9
:10102000EE1FFF1F49F0FE57E0684427EE0F441FF4
:10103000FA95E1F74195550B0E9456080F9007FE6F
:101040000C944A080895DF93CF931F930F93FF9258
:10105000EF92DF927B018C01689406C0DA2EEF01DB
:101060000E943F07FE01E894A59125913591459195
:101070005591A6F3EF010E94EC05FE019701A8012E
:10108000DA9469F7DF90EF90FF900F911F91CF9165
:10109000DF9108959B01AC0160E070E080E89FE380
:1010A0000C9410090C94D6060C9482090E94060731
:1010B000D8F39923C9F3940F511DA3F391505040D5
:1010C00094F059F0882332F0660F771F881F9150F3
:1010D0005040C1F79E3F51052CF7880F911D969502
:1010E000879597F908955F3FACF0983E9CF0BB2739
:1010F000869577956795B79508F4B1609395C1F794
:10110000BB0F58F711F460FFE8CF6F5F7F4F8F4F31
:101110009F4FE3CF0C94210716F00C9482090C9496
:10112000DC0668940C94D6060E940607A8F399235F
:10113000C1F3AEF3DF93CF931F930F93FF92C92FA9
:10114000DD2788232AF02197660F771F881FDAF79B
:1011500020E030E040E85FEB9FE3883920F0803EFC
:1011600038F021968F770E94D505E0E9F0E004C0C1
:101170000E94D505EDEBF0E00E9423088B01BE0133
:10118000EC01FB2E6F5771097595771F880B990B32
:101190000E94770628E132E741E35FE30E943F07C0
:1011A000AF2D9801AE01FF900F911F91CF91DF916C
:1011B0000E94EC050C94ED06FA01DC01AA0FBB1F9E
:1011C0009B01AC01BF5728F42227332744275078CE
:1011D00020C0B75190F4AB2F002446953795279542
:1011E000011CA395D2F3002071F0220F331F441F7E
:1011F000B395DAF30ED00C94D40561307105A0E8F4
:101200008A07B94630F49B01AC0166277727882707
:101210009078309621F02083318342835383089560
:101220000E9424090C94ED060E94E60658F00E94E4
:10123000DF0640F029F45F3F29F00C94D6065111E7
:101240000C9421070C94DC060E94FE0668F3992397
:10125000B1F3552391F3951B550BBB27AA276217B2
:101260007307840738F09F5F5F4F220F331F441FBF
:10127000AA1FA9F335D00E2E3AF0E0E832D09150F3
:101280005040E695001CCAF72BD0FE2F29D0660FE0
:10129000771F881FBB1F261737074807AB07B0E823
:1012A00009F0BB0B802DBF01FF2793585F4F3AF029
:1012B0009E3F510578F00C94D6060C9421075F3FB1
:1012C000E4F3983ED4F3869577956795B795F795AF
:1012D0009F5FC9F7880F911D9695879597F9089597
:1012E000E1E0660F771F881FBB1F62177307840733
:1012F000BA0720F0621B730B840BBA0BEE1F88F742
:10130000E09508959F3F31F0915020F487957795AF
:101310006795B795880F911D9695879597F90895CC
:101320009111089581568A5108F480528558089584
:04133000F894FFCF5F
:101334004F56462000434E542000444F574E00530E
:101344002E542E522E542E00202E474F2E20004E67
:101354004547200053544F500041474E2000204E33
:041364004F570000DF
:00000001FF
