:100000006AC08EC08DC08CC08BC06BC389C088C0D5
:1000100087C086C085C084C083C082C081C007639A
:100020004236B79BD8A71A39685618AEBAAB558C6A
:100030001D3CB7CC5763BD6DEDFD753EF6177231B3
:10004000BF000000803F08000000BE922449123E1D
:10005000ABAAAA2ABECDCCCC4C3E00000080BEABE1
:10006000AAAAAA3E00000000BF000000803F0000D6
:10007000000000084178D3BB4387D1133D190E3CE3
:10008000C3BD4282AD2B3E68EC8276BED98FE1A91A
:100090003E4C80EFFFBE01C4FF7F3F000000000028
:1000A00000000000370001000A006400E803102788
:1000B000FC60DAF266B6BEE0FEF6EE3E9C7A9E8EFC
:1000C000BC6E781CAAECCE0A1E7C76005602020298
:1000D00002020200E50411241FBECFE5D2E0DEBF1C
:1000E000CDBF10E0A0E6B0E0E2E7F1E102C005908C
:1000F0000D92A439B107D9F720E0A4E9B0E001C01E
:100100001D92A33BB207E1F710E0CBE6D0E003C0BD
:100110002197FE019BD4CA36D107D1F72CD327C82B
:100120006FCF90E49EB98FB9689A6898689A68987A
:10013000689A6898689A6898689A6898689A6898B7
:10014000689A6898689A6898689A6898689A6898A7
:10015000689A6898689A6898689A6898689A689897
:10016000689A6898689A68988FB108959DB191606F
:1001700020E42EB98FB980E19DB9262F2A95F1F799
:100180008150D1F78FB10895082E000C8795000C8F
:100190008795000C8795000C8795000C8795000CBF
:1001A0008795000C8795000C879508951F93CF9332
:1001B000DF93C0919900D0919A0010919B0090918B
:1001C0006000992331F0612FFE01DF91CF911F91E3
:1001D0000994DADF612FFE010995DF91CF911F911C
:1001E000D3CF811105C08FB7F894C2988FBF0895FF
:1001F0008FB7F894C29AFACFCF93DF9300D000D094
:1002000000D0CDB7DEB749835A837C838D839E832C
:100210006DB98981809360008C8180939B008D8172
:100220009E8190939A00809399008A81882351F04F
:1002300081E026960FB6F894DEBF0FBECDBFDF91EA
:10024000CF91CFCF80E0F5CF0F931F93CF93DF9364
:1002500000D000D000D0CDB7DEB720E130E002C042
:10026000220F331F6A95E2F7E82FF0E0E055FF4FC9
:10027000E4910E2F10E0102F002741111160F901B9
:10028000FF278091A400882309F46CC010950E2BE1
:100290001F2B8091A500882309F468C08091A600D7
:1002A000882309F463C0E091AA00F091AB0090812B
:1002B0008091B0008095892380838091A500882358
:1002C00009F459C08091A600882309F454C0F89419
:1002D00030E020E0E091AC00F091AD008091B10001
:1002E000A801022E02C0569547950A94E2F7908124
:1002F00040FF3EC0892B8083E091AE00F091AF00BB
:1003000080819091B200892B80830000E091AE0043
:10031000F091AF0090818091B20080958923808315
:100320002F5F3F4F20313105A9F678948091A500C9
:100330008823A9F18091A600882389F1E091AA0081
:10034000F091AB0080819091B000892B808326963C
:100350000FB6F894DEBF0FBECDBFDF91CF911F91D6
:100360000F910895E095F0950E2B93CFC098A5CFEF
:1003700080958923C0CF19821A828AE18B831C82DF
:1003800081E990E09E838D8340E050E06AE170E077
:100390009E8132DF802F0ADF812F08DFC7CFC09A0E
:1003A000D6CF8F929F92AF92BF92DF92EF92FF9241
:1003B0000F931F93CF93DF9300D000D0CDB7DEB75C
:1003C0009C01D62EEAE0F0E0BF0119D38983CB016E
:1003D000BF0115D38A83C90164E670E010D36B8333
:1003E0001C8283E001E0080FE1E0F0E0EC0FFD1F6C
:1003F000E80FF11D9081911108C0D81631F09FEFE0
:10040000980F9D1508F03DC0082F8FB7F894809085
:100410009C0090909D00A0909E00B0909F008FBF88
:100420008091A0009091A100A091A200B091A300A2
:10043000880E991EAA1EBB1E60E010E02FB7F8942C
:1004400080919C0090919D00A0919E00B0919F0092
:100450002FBF88169906AA06BB06A8F0E62EF12C37
:1004600041E0D61240E0E1E0F0E0EC0FFD1FEE0DC0
:10047000FF1D8081E9DEC7010196B801D4D2682F43
:10048000DDCF892FAFCF0F900F900F900F90DF919E
:10049000CF911F910F91FF90EF90DF90BF90AF90A1
:1004A0009F908F9008954F925F926F927F928F925C
:1004B0009F92AF92BF92CF92DF92EF92FF920F93F3
:1004C0001F93CF93DF93CDB7DEB75C01EDB6FEB6D9
:1004D00080E091E0812C912C41E050E0F501E80FA3
:1004E000F11D2081222381F02E3261F4282F291B57
:1004F000BA0102C0660F771F2A95E2F7862A9F5F2E
:100500008F5FECCF9394FCCF74E0791550F580E1C8
:1005100097E2A0E0B0E08093A0009093A100A093A8
:10052000A200B093A30081E690E0BDDF0FB6F8947F
:10053000FEBE0FBEEDBE0FB6F894FEBE0FBEEDBE02
:10054000DF91CF911F910F91FF90EF90DF90CF90AF
:10055000BF90AF909F908F907F906F905F904F90E3
:1005600008958DB79EB7891991090FB6F8949EBF6B
:100570000FBE8DBFEDB7FEB731966F0100E0712C55
:10058000F501E70DF11D9081992309F468C09E32B1
:1005900009F463C066246394600E10E0292F092ECD
:1005A000000C330BA9014053510990534A305105B7
:1005B00008F44EC0C901D3D591E0893409F448C08C
:1005C00092E08A3509F444C095E0833509F440C0CF
:1005D0009AE08134E9F198E08234D1F19CE08334EF
:1005E000B9F19DE08434A1F19EE0853489F19FE06A
:1005F000863471F190E1873459F191E1883441F109
:1006000092E18A3429F193E18C3411F194E18D3433
:10061000F9F090E08F34E1F095E18E34C9F096E185
:100620008035B1F099E0813599F097E1823581F01C
:1006300098E1843569F09BEA980F923040F09CE194
:10064000873531F09BE1893519F49AE101C099E1D0
:10065000F601E00FF11F9083062D739491CF8FB7B1
:10066000F89440909C0050909D0060909E00709087
:100670009F008FBF8091A0009091A100A091A20047
:10068000B091A300480E591E6A1E7B1EAA24AA948C
:10069000A90C912C2FB7F89480919C0090919D000B
:1006A000A0919E00B0919F002FBF481659066A0680
:1006B0007B0608F43BCFBA2C8601FFEFBF1651F33F
:1006C000C8018C199D09A40102C0559547958A95CA
:1006D000E2F741706B2DF80181918F01B5DDBA947D
:1006E000ECCF1F920F920FB60F9211242F933F93CE
:1006F0008F939F93AF93BF9380919C0090919D00A7
:10070000A0919E00B0919F003091980026E0230FA9
:100710002D3768F129E8230F0396A11DB11D209301
:10072000980080939C0090939D00A0939E00B093AE
:100730009F008091940090919500A0919600B091B7
:1007400097000196A11DB11D809394009093950090
:10075000A0939600B0939700BF91AF919F918F9116
:100760003F912F910F900FBE0F901F9018950296FA
:10077000A11DB11DD4CFCF93DF9300D000D000D006
:10078000CDB7DEB780E886BD11E016BD83E08ABD37
:1007900083BF789489B7826089BF80E48CBD8FEF76
:1007A0008DBD87EC80BF86E886B988EE93E0A0E037
:1007B000B0E08093A0009093A100A093A200B0931A
:1007C000A3008DB18F718DB98DB18A618DB9BA9A3F
:1007D000B99AB8988AE18B8319831A821C8386EBB5
:1007E00090E09E838D8341E050E06AE171E09E815C
:1007F00003DD1092600087B3876087BB8091A600FD
:1008000081113EC01092A7001093A80022E020930F
:10081000A90088E390E09093AB008093AA00109326
:10082000B0009093AD008093AC002093B100909302
:10083000AF008093AE0084E08093B200B89AEEECF3
:10084000F0E0E491F0E0EE0FFF1FE056FF4FA591BE
:10085000B4918C9182608C93E091A900F0E0E35315
:10086000FF4FE491F0E0EE0FFF1FE056FF4FA59120
:10087000B4918C919091B200892B8C931093A60027
:1008800088EA282E80E0382E90E1C92E97E2D92EF2
:10089000E12CF12C28EE822E23E0922EA12CB12CFB
:1008A00086E690E000DE8BE690E0FDDD80E790E0FC
:1008B000FADD05E010E060E0C80173DD01501109C8
:1008C000D0F789E790E0EFDD03E010E0B801012EFA
:1008D000000C880B990B57D19B01AC0160E070E0D4
:1008E00080E291E46FD221D16093A0007093A100C7
:1008F0008093A2009093A300412C512C3201EEEA88
:10090000F0E06591749190E080E03BD19B01AC01F7
:10091000C301B201E8D187FD44C0C092A000D092CB
:10092000A100E092A200F092A30081E690E012C044
:1009300020E030E0A901C301B201F3D087FFDFCF8F
:10094000C092A000D092A100E092A200F092A30079
:1009500080E890E0A8DD2DEC3CEC4CEC5DE3C301BD
:10096000B2017BD02B013C0120E030E040E151E4BA
:10097000D8D087FDDDCF0150110908F0A7CF8092B4
:10098000A0009092A100A092A200B092A30085E8DE
:1009900090E089DD8AE890E086DD8FE890E083DDF5
:1009A0007FCFF1016591749190E080E0EAD0A301DE
:1009B00092019DD120E030E040E05FE34ED0B5D021
:1009C000CB01992761E0EDDCC6CFE0EAF0E01482CC
:1009D00080E197E2A0E0B0E080839183A283B383BB
:1009E0001582168217821086118613861286158646
:1009F000148617861686108A118A128A0895AA1BF1
:100A0000BB1B51E107C0AA1FBB1FA617B70710F0F9
:100A1000A61BB70B881F991F5A95A9F7809590952B
:100A2000BC01CD01089597FB072E16F4009406D063
:100A300077FD08D0E4DF07FC05D03EF49095819562
:100A40009F4F0895709561957F4F0895EE0FFF1F9A
:100A50000590F491E02D09945058BB27AA270ED099
:100A600008C1F9D030F0FED020F031F49F3F11F4EE
:100A70001EF4EEC00EF4E095E7FBE4C0E92F0AD1C6
:100A800080F3BA17620773078407950718F071F4AB
:100A90009EF522C10EF4E0950B2EBA2FA02D0B016E
:100AA000B90190010C01CA01A0011124FF27591BB3
:100AB00099F0593F50F4503E68F11A16F040A22FB9
:100AC000232F342F4427585FF3CF4695379527952A
:100AD000A795F0405395C9F77EF41F16BA0B620B29
:100AE000730B840BBAF09150A1F0FF0FBB1F661F70
:100AF000771F881FC2F70EC0BA0F621F731F841FB3
:100B000048F4879577956795B795F7959E3F08F0D8
:100B1000B3CF9395880F08F09927EE0F9795879597
:100B200008956CD008F481E00895BCD088F09F57F8
:100B300090F0B92F9927B751A0F0D1F0660F771F29
:100B4000881F991F1AF0BA95C9F712C0B13081F009
:100B5000C3D0B1E00895C0C0672F782F8827B85F51
:100B600039F0B93FCCF3869577956795B395D9F76A
:100B70003EF490958095709561957F4F8F4F9F4F74
:100B80000895E89409C097FB3EF490958095709580
:100B900061957F4F8F4F9F4F9923A9F0F92F96E9C9
:100BA000BB279395F695879577956795B795F1113E
:100BB000F8CFFAF4BB0F11F460FF1BC06F5F7F4FDB
:100BC0008F4F9F4F16C0882311F096E911C07723ED
:100BD00021F09EE8872F762F05C0662371F096E8F6
:100BE000862F70E060E02AF09A95660F771F881FC5
:100BF000DAF7880F9695879597F90895990F000869
:100C0000550FAA0BE0E8FEEF16161706E807F907DE
:100C1000C0F012161306E407F50798F0621B730B79
:100C2000840B950B39F40A2661F0232B242B252BFA
:100C300021F408950A2609F4A140A6958FEF811D9D
:100C4000811D089597F99F6780E870E060E008953E
:100C50009FEF80EC089500240A94161617061806D4
:100C60000906089500240A941216130614060506B0
:100C70000895092E0394000C11F4882352F0BB0F41
:100C800040F4BF2B11F460FF04C06F5F7F4F8F4FA4
:100C90009F4F089557FD9058440F551F59F05F3FDF
:100CA00071F04795880F97FB991F61F09F3F79F08E
:100CB00087950895121613061406551FF2CF469510
:100CC000F1DF08C0161617061806991FF1CF869592
:100CD0007105610508940895E894BB276627772776
:100CE000CB0197F908958ADF08F48FEF08950AD0B1
:100CF000C0CFB1DF28F0B6DF18F0952309F0A2CFFE
:100D0000A7CFEBCFC7DFA8F39923D9F35523C9F3B6
:100D1000950F50E0551FAA27EE27FF27BB27002479
:100D20000894679520F4E20FF31FB41F0A1E220FE8
:100D3000331F441FAA1F6695A9F7779530F4F30F68
:100D4000B41F0A1E121E08F46395330F441FAA1F16
:100D5000221F769599F7879520F4B40F0A1E121E6C
:100D6000631F440FAA1F221F331F8695A9F7862FE2
:100D7000712D602D11249F5750408AF0E1F0882397
:100D80004AF0EE0FFF1FBB1F661F771F881F915091
:100D90005040A9F79E3F510570F054CF9ECF5F3F62
:100DA000ECF3983EDCF3869577956795B795F795C4
:100DB000E7959F5FC1F7FE2B880F911D969587954C
:100DC00097F90895FA01EE0FFF1F309621053105BE
:100DD00099F16115710561F48038BFE39B0749F112
:100DE00068949038810561F08038BFEF9B0741F02F
:100DF000992342F5FF3FE1053105210511F1E89402
:100E00000894E795D901AA2329F4AB2FBE2FF85FE8
:100E1000D0F310C0FF5F70F4A695E0F7F73950F0FB
:100E200019F0FF3A38F49F779F930CD00F9007FC8E
:100E3000905808953EF00CCF60E070E080E89FE3AA
:100E400008954FE79F775F934F933F932F939ED0E3
:100E50002F913F914F915F914ADF05C019F40EF039
:100E6000F1CE3ACFF5CE1EDFC8F39638C0F707F8BB
:100E70000F92E8942BE33AEA48EB5FE745DF0F92E5
:100E80000F920F924DB75EB70F92C0D0EEE1F0E037
:100E900016D04F915F91EF91FF91E595EE1FFF1FE7
:100EA00049F0FE57E0684427EE0F441FFA95E1F73A
:100EB0004195550B32D00F9007FE26C00895DF9361
:100EC000CF931F930F93FF92EF92DF927B018C01E0
:100ED000689405C0DA2EEF0115DFFE01E894A591B4
:100EE0002591359145915591AEF3EF01C7DDFE0196
:100EF0009701A801DA9479F7DF90EF90FF900F91B6
:100F00001F91CF91DF9108959B01AC0160E070E0EB
:100F100080E89FE3AEC096CE14C1C4DEE8F3992307
:100F2000D9F3940F511DBBF39150504094F059F0F8
:100F3000882332F0660F771F881F91505040C1F709
:100F40009E3F510544F7880F911D9695879597F917
:100F500008955F3FACF0983E9CF0BB27869577954F
:100F60006795B79508F4B1609395C1F7BB0F58F733
:100F700011F460FFE8CF6F5F7F4F8F4F9F4FE3CF3C
:100F8000ACCE0EF0DEC064CE68945CCE8BDEC8F3CF
:100F90009923D1F3C6F3DF93CF931F930F93FF925F
:100FA000C92FDD2788232AF02197660F771F881F16
:100FB000DAF720E030E040E85FEB9FE3883920F08B
:100FC000803E30F021968F7748DDE6E4F0E003C004
:100FD00044DDE3E7F0E073DF8B01BE01EC01FB2EA3
:100FE0006F5771097595771F880B990BCCDD28E138
:100FF00032E741E35FE386DEAF2D9801AE01FF905B
:101000000F911F91CF91DF9139DD33CEFA01DC01D1
:10101000AA0FBB1F9B01AC01BF5728F4222733271F
:10102000442750781FC0B75188F4AB2F0024469551
:1010300037952795011CA395D2F3002069F0220F64
:10104000331F441FB395DAF30DD006CD613071051F
:10105000A0E88A07B94630F49B01AC0166277727E0
:1010600088279078309621F0208331834283538300
:1010700008950CD0FECDF6DD40F0EDDD30F021F42A
:101080005F3F19F0DFCD511128CEE2CD03DE98F39A
:101090009923C9F35523B1F3951B550BBB27AA27F9
:1010A00062177307840738F09F5F5F4F220F331F6B
:1010B000441FAA1FA9F333D00E2E3AF0E0E830D037
:1010C00091505040E695001CCAF729D0FE2F27D03A
:1010D000660F771F881FBB1F261737074807AB0708
:1010E000B0E809F0BB0B802DBF01FF2793585F4F7D
:1010F0002AF09E3F510568F0A5CDEFCD5F3FECF3A0
:10110000983EDCF3869577956795B795F7959F5F41
:10111000C9F7880F911D9695879597F90895E1E095
:10112000660F771F881FBB1F621773078407BA07F4
:1011300020F0621B730B840BBA0BEE1F88F7E0954F
:1011400008959F3F31F0915020F4879577956795EA
:10115000B795880F911D9695879597F908959111E8
:10116000089581568A5108F4805285580895F8945C
:02117000FFCFAF
:10117200014F56462000434E542000444F574E0024
:10118200532E542E522E542E00202E474F2E200026
:101192004E4547200053544F500041474E200020F7
:0411A2004E4F570055
:00000001FF
